:100000000C9434000C9498030C9451000C945100FF
:100010000C9451000C9451000C9451000C9451001C
:100020000C9451000C94A5020C9451000C945100B6
:100030000C9451000C9472030C9451000C945100D8
:100040000C94E3030C9451000C9451000C94510057
:100050000C9451000C9451000C9451000C945100DC
:100060000C9451000C94510011241FBECFEFD8E026
:10007000DEBFCDBF11E0A0E0B1E0EEEEF0E102C0E6
:1000800005900D92A236B107D9F721E0A2E6B1E0C2
:1000900001C01D92A438B207E1F70E942B040C9412
:1000A00075080C940000672B09F099C0009721F4A3
:1000B00085B18E7F85B908958130910521F485B190
:1000C0008D7F85B908958230910521F485B18B7FAC
:1000D00085B908958330910521F485B1877F85B96D
:1000E00008958430910521F485B18F7E85B90895F6
:1000F0008530910521F485B18F7D85B908958031D2
:10010000910521F485B18F7B85B9089581319105E1
:1001100021F485B18F7785B908958431910521F453
:1001200088B18E7F88B908958531910521F488B111
:100130008D7F88B908958631910521F488B18B7F30
:1001400088B908958731910521F488B1877F88B9EE
:1001500008958831910521F488B18F7E88B908957A
:100160008931910521F488B18F7D88B908958E3148
:10017000910521F48BB18E7F8BB908958F31910554
:1001800021F48BB18D7F8BB908958032910521F4D4
:100190008BB18B7F8BB908958132910521F48BB19E
:1001A000877F8BB908958232910521F48BB18F7EC0
:1001B0008BB908958332910521F48BB18F7D8BB972
:1001C00008958432910521F48BB18F7B8BB908950A
:1001D000859709F09BC08BB18F778BB908950097F5
:1001E00021F485B1816085B908958130910521F4AC
:1001F00085B1826085B908958230910521F485B179
:10020000846085B908958330910521F485B18860B3
:1002100085B908958430910521F485B1806185B94F
:1002200008958530910521F485B1806285B90895DE
:100230008031910521F485B1806485B908958131BB
:10024000910521F485B1806885B9089584319105BF
:1002500021F488B1816088B908958531910521F430
:1002600088B1826088B908958631910521F488B1FA
:10027000846088B908958731910521F488B1886038
:1002800088B908958831910521F488B1806188B9D1
:1002900008958931910521F488B1806288B9089563
:1002A0008E31910521F48BB181608BB908958F3126
:1002B000910521F48BB182608BB90895803291054C
:1002C00021F48BB184608BB908958132910521F4BA
:1002D0008BB188608BB908958232910521F48BB17E
:1002E00080618BB908958332910521F48BB18062CE
:1002F0008BB908958432910521F48BB180648BB958
:100300000895859719F48BB180688BB90895CF93C0
:10031000C82F80FF07C061E070E082E090E00E949B
:10032000530006C060E070E082E090E00E9453005D
:10033000C1FF07C061E070E083E090E00E945300DD
:1003400006C060E070E083E090E00E945300C2FFCE
:1003500007C061E070E084E090E00E94530006C0B6
:1003600060E070E084E090E00E945300C3FF07C0AB
:1003700061E070E085E090E00E94530006C060E01C
:1003800070E085E090E00E945300CF910895CF93F4
:10039000C82F60E070E080E090E00E9453008C2F56
:1003A0000E94870161E070E081E090E00E945300CC
:1003B0008FE99FE00197F1F700C0000060E070E076
:1003C00081E090E00E9453008FE99FE00197F1F7F0
:1003D00000C00000CF91089580E00E94C70181E035
:1003E0000E94C7010895CF93813061F480E8860FA1
:1003F000C62FCF7082958F700E94C7018C2F0E94EC
:10040000C7010DC0823059F480EC860FC62FCF7023
:1004100082958F700E94C7018C2F0E94C701CF91D7
:10042000089580E00E9487012FEF89EF90E021502E
:1004300080409040E1F700C0000083E00E94C701C7
:100440008FE19EE40197F1F700C0000083E00E9475
:10045000C7018FED9BEA0197F1F700C0000083E030
:100460000E94C70182E00E94C70182E00E94C7018A
:1004700088E00E94C70180E00E94C7018CE00E94D2
:10048000C70180E00E94C70186E00E94C70108956D
:10049000CF93DF93D82FDF70C82FC07F61E070E06B
:1004A00080E090E00E9453008C2F82958F700E9414
:1004B000870161E070E081E090E00E9453008FE9E5
:1004C0009FE00197F1F700C0000060E070E081E07C
:1004D00090E00E9453008FE99FE00197F1F700C080
:1004E00000008D2F0E94870161E070E081E090E0C4
:1004F0000E9453008FE99FE00197F1F700C00000D0
:1005000060E070E081E090E00E9453008FE99FE09E
:100510000197F1F700C00000DF91CF9108950F938C
:100520001F93CF93DF938C01C0E0D0E003C00E9403
:1005300048022196F801EC0FFD1F80818111F7CF51
:10054000DF91CF911F910F9108951F920F920FB6D7
:100550000F9211242F933F934F935F936F937F9349
:100560008F939F93AF93BF93EF93FF9380916E010F
:1005700090916F010A9690936F0180936E01809124
:100580006E0190916F012091680130916901821B89
:10059000930B883E934018F08DB381608DBB8091A2
:1005A000720190917301892B09F088C046B142FB1A
:1005B000442740F950E0842F952F40931C0150931D
:1005C0001D0120911A0130911B012115310541F0C7
:1005D000009731F061E070E07093190160931801A9
:1005E000232B21F5892B11F5809118019091190188
:1005F000892BE1F0E0916C01F0916D0131969F0142
:10060000ABEABAEA0E947C05969587959C01220F79
:10061000331F820F931F9F01281B390B30936D01ED
:1006200020936C01109219011092180140931A0145
:1006300050931B0146B143FB442740F950E0842FFF
:10064000952F40931601509317012091140130917A
:1006500015012115310541F0009731F061E070E09E
:100660007093130160931201232B21F5892B11F54F
:100670008091120190911301892BE1F0E0916A01C0
:10068000F0916B0131969F01ABEABAEA0E947C05BA
:10069000969587959C01220F331F820F931F9F0110
:1006A000281B390B30936B0120936A0110921301C0
:1006B00010921201409314015093150186E080932B
:1006C000B200FF91EF91BF91AF919F918F917F9178
:1006D0006F915F914F913F912F910F900FBE0F90AF
:1006E0001F9018951F920F920FB60F9211248F939F
:1006F0009F9380916601909167010A96909367019C
:10070000809366018FED91EB909385008093840038
:100710009F918F910F900FBE0F901F90189514BC52
:1007200083E085BD81E080936E0086E086BD0895FC
:100730001F920F920FB60F9211242F933F934F9356
:100740005F936F937F938F939F93AF93BF93EF9339
:10075000FF938DB38E7F8DBB0E948F03FF91EF912E
:10076000BF91AF919F918F917F916F915F914F91C9
:100770003F912F910F900FBE0F901F90189515BCB1
:1007800010926E0008951092B00083E08093B10043
:1007900081E08093700086E08093B200089510920B
:1007A000800082E08093810081E080936F008FED74
:1007B00091EB9093850080938400089510928100BE
:1007C00010926F0008951F920F920FB60F9211248E
:1007D0002F933F934F935F936F937F938F939F9349
:1007E000AF93BF93EF93FF934A9915C08091720125
:1007F00090917301019739F4109273011092720174
:100800000E94DE0308C081E090E090937301809322
:1008100072010E94CF030E94BF0380916E019091EC
:100820006F0190936901809368018DB381608DBBE6
:1008300086E086BDFF91EF91BF91AF919F918F911F
:100840007F916F915F914F913F912F910F900FBECC
:100850000F901F90189582E08093690081E08DBB16
:100860001CBA78948FEF84B983E387B98BEF8AB988
:100870000E94C30385B1826085B90E9411020E9463
:10088000EC0120917201309173012115310509F4B9
:100890007EC0E0916C01F0916D01CF01880F991F2E
:1008A000E80FF91F80916A0190916B01E80FF91F21
:1008B000EE0FFF1FE050FF4F408151818091660194
:1008C000909167018417950708F061C08BB1826031
:1008D0008BB91092710110927001E0916C01F0914E
:1008E0006D01CF01880F991FE80FF91F80916A01F0
:1008F00090916B01E80FF91FEE0FFF1FE050FF4FC3
:10090000208131818091660190916701281B390B0C
:10091000369527953695279536952795A5ECB0E21F
:100920000E947C05929582958F7089279F708927F8
:10093000909365018093640120916201309163017D
:100940008217930709F480C090936301809362013A
:1009500060E081E00E94F301809165018F938091B6
:1009600064018F938EE191E09F938F9384E791E0F0
:100970009F938F930E948B0584E791E00E948F02E2
:100980000F900F900F900F900F900F905DC0232B42
:1009900071F1E0916C01F0916D01CF01880F991F09
:1009A000E80FF91F80916A0190916B01E80FF91F20
:1009B000EE0FFF1FE050FF4F2081318180916601D3
:1009C000909167018217930790F08BB18D7F8BB95F
:1009D00010927301109272011092670110926601D9
:1009E00081E090E090937101809370012DC080911F
:1009F000700190917101892B39F58BB18D7F8BB985
:100A0000E0916C01F0916D01EE0FFF1FE45AFE4F73
:100A100081818F9380818F938FE291E09F938F9359
:100A200084E791E09F938F930E948B0560E081E0C3
:100A30000E94F30184E791E00E948F020F900F90D3
:100A40000F900F900F900F90809170019091710115
:100A50000097E1F020916601309167012838334119
:100A6000A8F48BB181608BB981E1E0E4F1E0A4E707
:100A7000B1E001900D928A95E1F760E081E00E947B
:100A8000F30184E791E00E948F0216C0892BA1F048
:100A900080916601909167018838934168F08BB12D
:100AA0008E7F8BB9109271011092700110926701C4
:100AB000109266010E94DE0360E082E00E94F30172
:100AC00080916A0190916B0101969F938F9381E5CC
:100AD00091E09F938F9384E791E09F938F930E947F
:100AE0008B0584E791E00E948F020F900F900F908A
:100AF0000F900F900F90C5CEA29FB001B39FC00181
:100B0000A39F700D811D1124911DB29F700D811D39
:100B10001124911D0895AEE0B0E0E1E9F5E00C94F8
:100B20004C080D891E8986E08C831A8309838FEF18
:100B30009FE79E838D83AE01475E5F4F6F89788DFF
:100B4000CE0101960E94AD05EF81F885E00FF11FFF
:100B500010822E96E4E00C946808ABE0B0E0E3EB82
:100B6000F5E00C943E086C017B018A01FC011782C0
:100B70001682838181FFCCC1CE0101963C01F60132
:100B80009381F70193FD859193FF81917F018823E4
:100B900009F4BAC1853239F493FD859193FF8191AF
:100BA0007F01853229F4B60190E00E94A407E7CFC7
:100BB000912C212C312CFFE1F315D8F08B3279F0F8
:100BC00038F4803279F08332A1F4232D20611DC0E6
:100BD0008D3261F0803369F4232D216016C0832D9E
:100BE0008260382EE32DE4603E2E2AC0F32DF8609B
:100BF0001DC037FC2DC020ED280F2A3040F08E326A
:100C0000B9F436FC81C1232D2064322E19C036FE82
:100C100006C08AE0989E200D1124922E11C0EAE0B1
:100C20002E9E200D1124222EF32DF0623F2E08C09F
:100C30008C3621F4832D8068382E02C0883641F42A
:100C4000F70193FD859193FF81917F018111B3CFCE
:100C5000982F9F7D9554933028F40C5F1F4F9FE38E
:100C600099830DC0833631F0833771F0833509F0F5
:100C700059C021C0F801808189830E5F1F4F8824ED
:100C80008394912C530113C02801F2E04F0E511CA4
:100C9000F801A080B18036FE03C0692D70E002C06B
:100CA0006FEF7FEFC5010E9499074C018201F32D80
:100CB000FF773F2E16C0280122E0420E511CF8019A
:100CC000A080B18036FE03C0692D70E002C06FEFD6
:100CD0007FEFC5010E948E074C01F32DF0683F2E77
:100CE000820133FC1BC0822D90E088169906B0F477
:100CF000B60180E290E00E94A4072A94F4CFF501A7
:100D000037FC859137FE81915F01B60190E00E942A
:100D1000A40721102A9421E0821A910881149104D9
:100D200071F7E8C0843611F0893641F5F80137FED5
:100D300007C060817181828193810C5F1F4F08C061
:100D400060817181072E000C880B990B0E5F1F4F7D
:100D5000F32DFF763F2E97FF09C0909580957095F3
:100D600061957F4F8F4F9F4FF0683F2E2AE030E014
:100D7000A3010E94E007882E861845C0853731F40C
:100D8000232D2F7EB22E2AE030E025C0932D997FAF
:100D9000B92E8F36C1F018F4883579F0B5C0803798
:100DA00019F0883721F0B0C0E92FE061BE2EB4FE03
:100DB0000DC0FB2DF460BF2E09C034FE0AC0292FE0
:100DC0002660B22E06C028E030E005C020E130E009
:100DD00002C020E132E0F801B7FE07C060817181F6
:100DE000828193810C5F1F4F06C06081718180E01A
:100DF00090E00E5F1F4FA3010E94E007882E861827
:100E0000FB2DFF773F2E36FE0DC0232D2E7FA22E09
:100E1000891458F434FE0BC032FC09C0832D8E7E39
:100E2000A82E05C0B82CA32C03C0B82C01C0B92C27
:100E3000A4FE0FC0FE01E80DF11D8081803321F476
:100E40009A2D997EA92E09C0A2FE06C0B394B39430
:100E500004C08A2D867809F0B394A3FC11C0A0FECB
:100E600006C0B21488F4280C922C9B180EC0B21441
:100E700060F4B60180E290E00E94A407B394F7CF3B
:100E8000B21418F42B1802C0982C212CA4FE10C008
:100E9000B60180E390E00E94A407A2FE17C0A1FC67
:100EA00003C088E790E002C088E590E0B6010CC07E
:100EB0008A2D867859F0A1FE02C08BE201C080E243
:100EC000A7FC8DE2B60190E00E94A407891438F4D3
:100ED000B60180E390E00E94A4079A94F7CF8A9429
:100EE000F301E80DF11D8081B60190E00E94A40796
:100EF0008110F5CF222009F442CEB60180E290E0C5
:100F00000E94A4072A94F6CFF6018681978102C039
:100F10008FEF9FEF2B96E2E10C945A08FC010590AD
:100F2000615070400110D8F7809590958E0F9F1FEB
:100F30000895FC016150704001900110D8F7809530
:100F400090958E0F9F1F08950F931F93CF93DF935C
:100F5000FB01238121FD03C08FEF9FEF2CC022FFF7
:100F600016C046815781248135814217530744F4C6
:100F7000A081B1819D012F5F3F4F318320838C93EE
:100F8000268137812F5F3F4F3783268314C08B0123
:100F9000EC01FB010084F185E02D0995892BE1F638
:100FA000D80116968D919C911797019617969C9350
:100FB0008E931697CE01DF91CF911F910F910895D7
:100FC000FA01AA27283051F1203181F1E8946F937A
:100FD0006E7F6E5F7F4F8F4F9F4FAF4FB1E03ED020
:100FE000B4E03CD0670F781F891F9A1FA11D680FBE
:100FF000791F8A1F911DA11D6A0F711D811D911DF1
:10100000A11D20D009F468943F912AE0269F112465
:101010003019305D3193DEF6CF010895462F4770C9
:10102000405D4193B3E00FD0C9F7F6CF462F4F7024
:10103000405D4A3318F0495D31FD4052419302D082
:10104000A9F7EACFB4E0A695979587957795679528
:10105000BA95C9F700976105710508959B01AC0128
:101060000A2E06945795479537952795BA95C9F74F
:10107000620F731F841F951FA01D08952F923F922A
:101080004F925F926F927F928F929F92AF92BF9298
:10109000CF92DF92EF92FF920F931F93CF93DF9344
:1010A000CDB7DEB7CA1BDB0B0FB6F894DEBF0FBEA1
:1010B000CDBF09942A88398848885F846E847D84EE
:1010C0008C849B84AA84B984C884DF80EE80FD80F0
:1010D0000C811B81AA81B981CE0FD11D0FB6F89466
:0E10E000DEBF0FBECDBFED010895F894FFCF27
:1010EE00672BCE56E897822305474A7C8D201A41FE
:1010FE00EE710100010001000100010001004661D6
:10110E006C74613A202564207365672E202000568A
:10111E00656C2E3A202564206D2F6D696E2020009F
:10112E002D2D2D2D206C6C65676F21202D2D2D2DD5
:10113E000050756573746F3A2025640036004200C6
:02114E00480057
:00000001FF
